:020000040000FA
:06000000E0EF7CF01200AD
:020006001200E6
:08000800900E946E0F0E936E32
:10001000BF0E956E010E926E070E966E0F01396B34
:10002000010E386F1F0E3B6F3A6B030E3C6FB80E1C
:10003000C06E9684900EAB6E200EAC6EAC8A949C13
:10004000170EAF6EAB8E3A9FA450200B02E0000E4D
:1000500001D0010EB5EC76F0849482908292829465
:1000600082968098010EE66EE66A1DEC79F0E55204
:10007000E5520F010E6B0F6B0001616BC80EE66E4F
:10008000E66A1DEC79F0E552E552C9EC77F0F40E22
:10009000E66E010EE66E1DEC79F0E552E552010EBA
:1000A000E66EE66A31EC78F0E552E552C80EE66E8F
:1000B000E66A1DEC79F0E552E552C9EC77F0F40EF2
:1000C000E66E010EE66E1DEC79F0E552E552010E8A
:1000D000E66EE66A31EC78F0E552E552C80EE66E5F
:1000E000E66A1DEC79F0E552E55201012A6B2B6BB3
:1000F000C9EC77F0F40EE66E010EE66E1DEC79F0B9
:10010000E552E552010EE66EE66A31EC78F0E55212
:10011000E552140EE66EE66A1DEC79F0E552E55202
:10012000800EE66EE66A31EC78F0E552E552050E97
:10013000E66EE66AF5EC2AF0E552E5524C0EE66E04
:10014000E66A7AEC78F0E552E552450EE66EE66A2C
:100150007AEC78F0E552E552440EE66EE66A7AEC07
:1001600078F0E552E552200EE66EE66A7AEC78F019
:10017000E552E552500EE66EE66A7AEC78F0E5520A
:10018000E552430EE66EE66A7AEC78F0E552E55207
:10019000420EE66EE66A7AEC78F0E552E552200E01
:1001A000E66EE66A7AEC78F0E552E552540EE66EB9
:1001B000E66A7AEC78F0E552E552450EE66EE66ABC
:1001C0007AEC78F0E552E552530EE66EE66A7AEC88
:1001D00078F0E552E552540EE66EE66A7AEC78F075
:1001E000E552E552450EE66EE66A7AEC78F0E552A5
:1001F000E552520EE66EE66A7AEC78F0E552E55288
:10020000C00EE66EE66A31EC78F0E552E5522A0E51
:10021000E66EE66A7AEC78F0E552E5522A0EE66E72
:10022000E66A7AEC78F0E552E5522A0EE66EE66A66
:100230007AEC78F0E552E5522A0EE66EE66A7AEC40
:1002400078F0E552E5522A0EE66EE66A7AEC78F02E
:10025000E552E5522A0EE66EE66A7AEC78F0E5524F
:10026000E5522A0EE66EE66A7AEC78F0E552E5523F
:100270002A0EE66EE66A7AEC78F0E552E5522A0E2E
:10028000E66EE66A7AEC78F0E552E5522A0EE66E02
:10029000E66A7AEC78F0E552E5522A0EE66EE66AF6
:1002A0007AEC78F0E552E5522A0EE66EE66A7AECD0
:1002B00078F0E552E5522A0EE66EE66A7AEC78F0BE
:1002C000E552E5522A0EE66EE66A7AEC78F0E552DF
:1002D000E5522A0EE66EE66A7AEC78F0E552E552CF
:1002E0002A0EE66EE66A7AEC78F0E552E552900E58
:1002F000E66EE66A31EC78F0E552E552590EE66EAC
:10030000E66A7AEC78F0E552E5524F0EE66EE66A60
:100310007AEC78F0E552E552530EE66EE66A7AEC36
:1003200078F0E552E552480EE66EE66A7AEC78F02F
:10033000E552E552490EE66EE66A7AEC78F0E5524F
:10034000E552540EE66EE66A7AEC78F0E552E55234
:10035000410EE66EE66A7AEC78F0E552E552200E40
:10036000E66EE66A7AEC78F0E552E552540EE66EF7
:10037000E66A7AEC78F0E552E552450EE66EE66AFA
:100380007AEC78F0E552E552430EE66EE66A7AECD6
:1003900078F0E552E552480EE66EE66A7AEC78F0BF
:1003A000E552E5524E0EE66EE66A7AEC78F0E552DA
:1003B000E552490EE66EE66A7AEC78F0E552E552CF
:1003C0002D0EE66EE66A7AEC78F0E552E552C80E3C
:1003D000E66EE66A1DEC79F0E552E552D00EE66E67
:1003E000E66A31EC78F0E552E552430EE66EE66AD5
:1003F0007AEC78F0E552E552410EE66EE66A7AEC68
:1004000078F0E552E5524C0EE66EE66A7AEC78F04A
:10041000E552E552200EE66EE66A7AEC78F0E55297
:10042000E552530EE66EE66A7AEC78F0E552E55254
:10043000450EE66EE66A7AEC78F0E552E552520E29
:10044000E66EE66A7AEC78F0E552E552560EE66E14
:10045000E66A7AEC78F0E552E552490EE66EE66A15
:100460007AEC78F0E552E552430EE66EE66A7AECF5
:1004700078F0E552E552450EE66EE66A7AEC78F0E1
:10048000E552E552530EE66EE66A7AEC78F0E552F4
:10049000E552200EE66EE66A7AEC78F0E552E55217
:1004A000200EE66EE66A7AEC78F0E552E552F40E3C
:1004B000E66E010EE66E1DEC79F0E552E55299EC20
:1004C00071F0020EE66EE66A6C0EE66EE66A2A0EC1
:1004D000E66E010EE66E80EC7BF0146E060EE15EB9
:1004E0001450020EE66EE66A6A0EE66EE66A280EA2
:1004F000E66E010EE66E80EC7BF0146E060EE15E99
:100500001450020EE66EE66A6E0EE66EE66A300E75
:10051000E66E010EE66E80EC7BF0146E060EE15E78
:100520001450020EE66EE66A780EE66EE66A2C0E4F
:10053000E66E010EE66E80EC7BF0146E060EE15E58
:100540001450020EE66EE66A760EE66EE66A360E27
:10055000E66E010EE66E80EC7BF0146E060EE15E38
:1005600014508290849499EC71F0B9EC6EF0829200
:100570008290F40EE66E010EE66E1DEC79F0E55207
:10058000E552829480980F010E6B0F6B00017A6B1D
:100590007B6B8A6B8B6B8C6B8D6B8E6B8F6B0F0198
:1005A000106B116B0001926B936B906B916B946B62
:1005B000956B966B976B0F011C6B1D6B1E6B1F6B06
:1005C0008296146B156B126B136B186B196B166B91
:1005D000176B99EC71F0829484A407D0040E8114F7
:1005E000040802E187EC13F0F7D7050EE66EE66A21
:1005F0001DEC79F0E552E55299EC71F00001986B31
:1006000027EC2BF0010EE66EE66A31EC78F0E5524D
:10061000E552140EE66EE66A1DEC79F0E552E552FD
:10062000800EE66EE66A31EC78F0E552E552050E92
:10063000E66EE66AF5EC2AF0E552E552430EE66E08
:10064000E66A7AEC78F0E552E552410EE66EE66A2B
:100650007AEC78F0E552E5524C0EE66EE66A7AECFA
:1006600078F0E552E552430EE66EE66A7AEC78F0F1
:10067000E552E552550EE66EE66A7AEC78F0E55200
:10068000E5524C0EE66EE66A7AEC78F0E552E552F9
:10069000410EE66EE66A7AEC78F0E552E552540EC9
:1006A000E66EE66A7AEC78F0E552E552490EE66EBF
:1006B000E66A7AEC78F0E552E5524E0EE66EE66AAE
:1006C0007AEC78F0E552E552470EE66EE66A7AEC8F
:1006D00078F0E552E552200EE66EE66A7AEC78F0A4
:1006E000E552E5524C0EE66EE66A7AEC78F0E55299
:1006F000E552450EE66EE66A7AEC78F0E552E55290
:10070000440EE66EE66A7AEC78F0E552E552200E89
:10071000E66EE66A7AEC78F0E552E552C00EE66ED7
:10072000E66A31EC78F0E552E5524C0EE66EE66A88
:100730007AEC78F0E552E552550EE66EE66A7AEC10
:1007400078F0E552E552580EE66EE66A7AEC78F0FB
:10075000E552E552200EE66EE66A7AEC78F0E55254
:10076000E552560EE66EE66A7AEC78F0E552E5520E
:10077000410EE66EE66A7AEC78F0E552E5524C0EF0
:10078000E66EE66A7AEC78F0E552E552550EE66ED2
:10079000E66A7AEC78F0E552E552450EE66EE66AD6
:1007A0007AEC78F0E552E552200EE66EE66A7AECD5
:1007B00078F0E552E552200EE66EE66A7AEC78F0C3
:1007C000E552E552200EE66EE66A7AEC78F0E552E4
:1007D000E552200EE66EE66A7AEC78F0E552E552D4
:1007E000200EE66EE66A7AEC78F0E552E552C80E25
:1007F000E66EE66A1DEC79F0E552E552CAEC68F067
:1008000003CFE6FF04CFE6FF9BEC75F0E552E5521F
:10081000D00EE66E070EE66E1DEC79F0E552E5525D
:10082000C80EE66EE66A1DEC79F0E552E552900ED0
:10083000AB6E200EAC6EAC8A949C170EAF6EAB8E76
:100840002A0EAD6E9EA8FED7640EE66EE66A1DEC1B
:1008500079F0E552E552B9EC69F0829499EC71F0C7
:10086000C9EC77F0F40EE66E010EE66E1DEC79F041
:10087000E552E552B9EC6EF07AD6120099EC71F0BF
:10088000010102510101045D0101035101010559FA
:100890001AE204510001C95D010105510001CA5964
:1008A00003E2010E9F6F0ED0C9510101025D0001EC
:1008B000CA510101035904E20001020E9F6F02D0E8
:1008C00000019F6B00D0010106510101085D01018B
:1008D0000751010109591AE208510001CB5D0101DC
:1008E00009510001CC5903E2010EA06F0ED0CB518B
:1008F0000101065D0001CC510101075904E200012C
:10090000020EA06F02D00001A06B00D001010A51BD
:1009100001010C5D01010B5101010D591AE20C514D
:100920000001CD5D01010D510001CE5903E2010E20
:10093000A16F0ED0CD5101010A5D0001CE51010120
:100940000B5904E20001020EA16F02D00001A16B5D
:1009500000D001010E510101105D01010F51010193
:1009600011591AE210510001CF5D0101115100012E
:10097000D05903E2010EA26F0ED0CF5101010E5DDE
:100980000001D05101010F5904E20001020EA26FD3
:1009900002D00001A26B00D0200EE66EE66A7AEC6F
:1009A00078F0E552E552010112510101145D010197
:1009B0001351010115591AE214510001D15D0101D1
:1009C00015510001D25903E2010EA36F0ED0D1518F
:1009D0000101125D0001D2510101135904E200012D
:1009E000020EA36F02D00001A36B00D001011651CB
:1009F0000101185D01011751010119591AE218513D
:100A00000001D35D010119510001D45903E2010E27
:100A1000A46F0ED0D3510101165D0001D451010124
:100A2000175904E20001020EA46F02D00001A46B6A
:100A300000D001011A5101011C5D01011B5101018E
:100A40001D591AE21C510001D55D01011D51000123
:100A5000D65903E2010EA56F0ED0D55101011A5DE2
:100A60000001D65101011B5904E20001020EA56FDD
:100A700002D00001A56B00D001011E510101205DD3
:100A800001011F51010121591AE220510001D75DD6
:100A9000010121510001D85903E2010EA66F0ED0C9
:100AA000D75101011E5D0001D85101011F5904E217
:100AB0000001020EA66F02D00001A66B00D012004A
:100AC000800EE66EE66A31EC78F0E552E552430EB0
:100AD000E66EE66A7AEC78F0E552E552480EE66E8C
:100AE000E66A7AEC78F0E552E552410EE66EE66A87
:100AF0007AEC78F0E552E5524E0EE66EE66A7AEC54
:100B000078F0E552E5524E0EE66EE66A7AEC78F041
:100B1000E552E552450EE66EE66A7AEC78F0E5526B
:100B2000E5524C0EE66EE66A7AEC78F0E552E55254
:100B3000200EE66EE66A7AEC78F0E552E552520E47
:100B4000E66EE66A7AEC78F0E552E552410EE66E22
:100B5000E66A7AEC78F0E552E5524E0EE66EE66A09
:100B60007AEC78F0E552E552470EE66EE66A7AECEA
:100B700078F0E552E552450EE66EE66A7AEC78F0DA
:100B8000E552E552530EE66EE66A7AEC78F0E552ED
:100B9000E5523A0EE66EE66A7AEC78F0E552E552F6
:100BA0003A0EE66EE66A7AEC78F0E552E55283AAF0
:100BB000E0D1010102510101045D01010351010174
:100BC00005595AE204510001C95D010105510001B6
:100BD000CA5919E2C00EE66EE66A31EC78F0E552C9
:100BE000E552310EE66EE66A7AEC78F0E552E552AF
:100BF000200EE66EE66A7AEC78F0E552E5520001E6
:100C0000010E9F6F38D0C9510101025D0001CA5128
:100C10000101035919E2C00EE66EE66A31EC78F084
:100C2000E552E552310EE66EE66A7AEC78F0E5526E
:100C3000E552200EE66EE66A7AEC78F0E552E5526F
:100C40000001020E9F6F17D000019F6BC00EE66E71
:100C5000E66A31EC78F0E552E5522D0EE66EE66A72
:100C60007AEC78F0E552E552200EE66EE66A7AEC10
:100C700078F0E552E55215D0C00EE66EE66A31EC2A
:100C800078F0E552E5522A0EE66EE66A7AEC78F0E4
:100C9000E552E552200EE66EE66A7AEC78F0E5520F
:100CA000E552010106510101085D010107510101F1
:100CB00009595AE208510001CB5D010109510001B7
:100CC000CC5919E2C20EE66EE66A31EC78F0E552D4
:100CD000E552320EE66EE66A7AEC78F0E552E552BD
:100CE000200EE66EE66A7AEC78F0E552E5520001F5
:100CF000010EA06F38D0CB510101065D0001CC512F
:100D00000101075919E20001020EA06FC20EE66E42
:100D1000E66A31EC78F0E552E552320EE66EE66AAC
:100D20007AEC78F0E552E552200EE66EE66A7AEC4F
:100D300078F0E552E55217D00001A06BC20EE66EC6
:100D4000E66A31EC78F0E552E5522D0EE66EE66A81
:100D50007AEC78F0E552E552200EE66EE66A7AEC1F
:100D600078F0E552E55215D0C20EE66EE66A31EC37
:100D700078F0E552E5522A0EE66EE66A7AEC78F0F3
:100D8000E552E552200EE66EE66A7AEC78F0E5521E
:100D9000E55201010A5101010C5D01010B510101F4
:100DA0000D595AE20C510001CD5D01010D510001B8
:100DB000CE5919E2C40EE66EE66A31EC78F0E552DF
:100DC000E552330EE66EE66A7AEC78F0E552E552CB
:100DD000200EE66EE66A7AEC78F0E552E552000104
:100DE000010EA16F38D0CD5101010A5D0001CE5135
:100DF00001010B5919E20001020EA16FC40EE66E4B
:100E0000E66A31EC78F0E552E552330EE66EE66ABA
:100E10007AEC78F0E552E552200EE66EE66A7AEC5E
:100E200078F0E552E55217D00001A16BC40EE66ED2
:100E3000E66A31EC78F0E552E5522D0EE66EE66A90
:100E40007AEC78F0E552E552200EE66EE66A7AEC2E
:100E500078F0E552E55215D0C40EE66EE66A31EC44
:100E600078F0E552E5522A0EE66EE66A7AEC78F002
:100E7000E552E552200EE66EE66A7AEC78F0E5522D
:100E8000E55201010E510101105D01010F510101F7
:100E900011595AE210510001CF5D010111510001B9
:100EA000D05919E2C60EE66EE66A31EC78F0E552EA
:100EB000E552340EE66EE66A7AEC78F0E552E552D9
:100EC000200EE66EE66A7AEC78F0E552E552000113
:100ED000010EA26F38D0CF5101010E5D0001D0513B
:100EE00001010F5919E20001020EA26FC60EE66E53
:100EF000E66A31EC78F0E552E552340EE66EE66AC9
:100F00007AEC78F0E552E552200EE66EE66A7AEC6D
:100F100078F0E552E55217D00001A26BC60EE66EDE
:100F2000E66A31EC78F0E552E5522D0EE66EE66A9F
:100F30007AEC78F0E552E552200EE66EE66A7AEC3D
:100F400078F0E552E55215D0C60EE66EE66A31EC51
:100F500078F0E552E5522A0EE66EE66A7AEC78F011
:100F6000E552E552200EE66EE66A7AEC78F0E5523C
:100F7000E55283BAE0D1010112510101145D010172
:100F80001351010115595AE214510001D15D0101BB
:100F900015510001D25919E2C00EE66EE66A31EC35
:100FA00078F0E552E552350EE66EE66A7AEC78F0B6
:100FB000E552E552200EE66EE66A7AEC78F0E552EC
:100FC000E5520001010EA36F38D0D1510101125D2D
:100FD0000001D2510101135919E20001020EA36F61
:100FE000C00EE66EE66A31EC78F0E552E552350E59
:100FF000E66EE66A7AEC78F0E552E552200EE66E8F
:10100000E66A7AEC78F0E552E55217D00001A36B5E
:10101000C00EE66EE66A31EC78F0E552E5522D0E30
:10102000E66EE66A7AEC78F0E552E552200EE66E5E
:10103000E66A7AEC78F0E552E55215D0C00EE66E1D
:10104000E66A31EC78F0E552E5522A0EE66EE66A81
:101050007AEC78F0E552E552200EE66EE66A7AEC1C
:1010600078F0E552E552010116510101185D0101C8
:101070001751010119595AE218510001D35D0101BC
:1010800019510001D45919E2C20EE66EE66A31EC3C
:1010900078F0E552E552360EE66EE66A7AEC78F0C4
:1010A000E552E552200EE66EE66A7AEC78F0E552FB
:1010B000E5520001010EA46F38D0D3510101165D35
:1010C0000001D4510101175919E20001020EA46F69
:1010D000C20EE66EE66A31EC78F0E552E552360E65
:1010E000E66EE66A7AEC78F0E552E552200EE66E9E
:1010F000E66A7AEC78F0E552E55217D00001A46B6D
:10110000C20EE66EE66A31EC78F0E552E5522D0E3D
:10111000E66EE66A7AEC78F0E552E552200EE66E6D
:10112000E66A7AEC78F0E552E55215D0C20EE66E2A
:10113000E66A31EC78F0E552E5522A0EE66EE66A90
:101140007AEC78F0E552E552200EE66EE66A7AEC2B
:1011500078F0E552E55201011A5101011C5D0101CF
:101160001B5101011D595AE21C510001D55D0101BD
:101170001D510001D65919E2C40EE66EE66A31EC43
:1011800078F0E552E552370EE66EE66A7AEC78F0D2
:10119000E552E552200EE66EE66A7AEC78F0E5520A
:1011A000E5520001010EA56F38D0D55101011A5D3D
:1011B0000001D65101011B5919E20001020EA56F71
:1011C000C40EE66EE66A31EC78F0E552E552370E71
:1011D000E66EE66A7AEC78F0E552E552200EE66EAD
:1011E000E66A7AEC78F0E552E55217D00001A56B7B
:1011F000C40EE66EE66A31EC78F0E552E5522D0E4B
:10120000E66EE66A7AEC78F0E552E552200EE66E7C
:10121000E66A7AEC78F0E552E55215D0C40EE66E37
:10122000E66A31EC78F0E552E5522A0EE66EE66A9F
:101230007AEC78F0E552E552200EE66EE66A7AEC3A
:1012400078F0E552E55201011E510101205D0101D6
:101250001F51010121595AE220510001D75D0101BE
:1012600021510001D85919E2C60EE66EE66A31EC4A
:1012700078F0E552E552380EE66EE66A7AEC78F0E0
:10128000E552E552200EE66EE66A7AEC78F0E55219
:10129000E5520001010EA66F38D0D75101011E5D45
:1012A0000001D85101011F5919E20001020EA66F79
:1012B000C60EE66EE66A31EC78F0E552E552380E7D
:1012C000E66EE66A7AEC78F0E552E552200EE66EBC
:1012D000E66A7AEC78F0E552E55217D00001A66B89
:1012E000C60EE66EE66A31EC78F0E552E5522D0E58
:1012F000E66EE66A7AEC78F0E552E552200EE66E8C
:10130000E66A7AEC78F0E552E55215D0C60EE66E44
:10131000E66A31EC78F0E552E5522A0EE66EE66AAE
:101320007AEC78F0E552E552200EE66EE66A7AEC49
:1013300078F0E552E5521200010EE66EE66A31ECF5
:1013400078F0E552E552050EE66E93EC7CF0E5523E
:10135000800EE66EE66A31EC78F0E552E552050E55
:10136000E66E93EC7CF0E552530EE66EE66A7AEC9C
:1013700078F0E552E552450EE66EE66A7AEC78F0D2
:10138000E552E552540EE66EE66A7AEC78F0E552E4
:10139000E552540EE66EE66A7AEC78F0E552E552D4
:1013A000490EE66EE66A7AEC78F0E552E5524E0EAA
:1013B000E66EE66A7AEC78F0E552E552470EE66EA4
:1013C000E66A7AEC78F0E552E552530EE66EE66A8C
:1013D0007AEC78F0E552E5523A0EE66EE66A7AEC7F
:1013E00078F0E552E5523A0EE66EE66A7AEC78F06D
:1013F000E552E552C00EE66EE66A31EC78F0E55251
:10140000E552050EE66E93EC7CF0E552540EE66E66
:10141000E66A7AEC78F0E552E5524F0EE66EE66A3F
:101420007AEC78F0E552E552200EE66EE66A7AEC48
:1014300078F0E552E552530EE66EE66A7AEC78F003
:10144000E552E552450EE66EE66A7AEC78F0E55232
:10145000E552540EE66EE66A7AEC78F0E552E55213
:10146000200EE66EE66A7AEC78F0E552E552560E0A
:10147000E66EE66A7AEC78F0E552E5524F0EE66EDB
:10148000E66A7AEC78F0E552E5524C0EE66EE66AD2
:101490007AEC78F0E552E552540EE66EE66A7AECA4
:1014A00078F0E552E552410EE66EE66A7AEC78F0A5
:1014B000E552E552470EE66EE66A7AEC78F0E552C0
:1014C000E552450EE66EE66A7AEC78F0E552E552B2
:1014D000900EE66EE66A31EC78F0E552E552050EC4
:1014E000E66E93EC7CF0E552200EE66EE66A7AEC4E
:1014F00078F0E552E552530EE66EE66A7AEC78F043
:10150000E552E552450EE66EE66A7AEC78F0E55271
:10151000E5524C0EE66EE66A7AEC78F0E552E5525A
:10152000450EE66EE66A7AEC78F0E552E552430E37
:10153000E66EE66A7AEC78F0E552E552540EE66E15
:10154000E66A7AEC78F0E552E552200EE66EE66A3D
:101550007AEC78F0E552E552430EE66EE66A7AECF4
:1015600078F0E552E5524F0EE66EE66A7AEC78F0D6
:10157000E552E552550EE66EE66A7AEC78F0E552F1
:10158000E5524E0EE66EE66A7AEC78F0E552E552E8
:10159000540EE66EE66A7AEC78F0E552E552200EDB
:1015A000E66EE66A7AEC78F0E552E552200EE66ED9
:1015B000E66A7AEC78F0E552E552200EE66EE66ACD
:1015C0007AEC78F0E552E552D00EE66EE66A31EC40
:1015D00078F0E552E552050EE66E93EC7CF0E552AC
:1015E000200EE66EE66A7AEC78F0E552E552530E8C
:1015F000E66EE66A7AEC78F0E552E552450EE66E64
:10160000E66A7AEC78F0E552E552540EE66EE66A48
:101610007AEC78F0E552E552200EE66EE66A7AEC56
:1016200078F0E552E552430EE66EE66A7AEC78F021
:10163000E552E5524F0EE66EE66A7AEC78F0E55236
:10164000E552550EE66EE66A7AEC78F0E552E55220
:101650004E0EE66EE66A7AEC78F0E552E552540EEC
:10166000E66EE66A7AEC78F0E552E5523D0EE66EFB
:10167000E66A7AEC78F0E552E5522CC1E6FF2DC11E
:10168000E6FFB3EC70F0E552E5520A0E81140A0849
:1016900001E144D181A09DD081A008D0020EE66E68
:1016A000E66A1DEC79F0E552E552F6D701012C2BE4
:1016B000000E2D23020EE66EE66A780EE66EE66AEE
:1016C0002C0EE66E010EE66E37EC7BF0146E060E05
:1016D000E15E1450D00EE66EE66A31EC78F0E55229
:1016E000E552050EE66EE66AF5EC2AF0E552E552A3
:1016F000200EE66EE66A7AEC78F0E552E552530E7B
:10170000E66EE66A7AEC78F0E552E552450EE66E52
:10171000E66A7AEC78F0E552E552540EE66EE66A37
:101720007AEC78F0E552E552200EE66EE66A7AEC45
:1017300078F0E552E552430EE66EE66A7AEC78F010
:10174000E552E5524F0EE66EE66A7AEC78F0E55225
:10175000E552550EE66EE66A7AEC78F0E552E5520F
:101760004E0EE66EE66A7AEC78F0E552E552540EDB
:10177000E66EE66A7AEC78F0E552E5523D0EE66EEA
:10178000E66A7AEC78F0E552E5522CC1E6FF2DC10D
:10179000E6FFB3EC70F0E552E5520101365101016C
:1017A0002C5D0101375101012D5913E3020EE66E44
:1017B000E66A780EE66EE66A2C0EE66E010EE66EBE
:1017C000CAEC7BF0146E060EE15E145001012C6B26
:1017D0002D6B080E8114080801E09FD0080E8114BB
:1017E000080808E1020EE66EE66A1DEC79F0E552A3
:1017F000E552F4D701012C07000E2D5B020EE66EB8
:10180000E66A780EE66EE66A2C0EE66E010EE66E6D
:1018100037EC7BF0146E060EE15E1450D00EE66ECF
:10182000E66A31EC78F0E552E552050EE66EE66ABE
:10183000F5EC2AF0E552E552200EE66EE66A7AEC07
:1018400078F0E552E552530EE66EE66A7AEC78F0EF
:10185000E552E552450EE66EE66A7AEC78F0E5521E
:10186000E552540EE66EE66A7AEC78F0E552E552FF
:10187000200EE66EE66A7AEC78F0E552E552430E09
:10188000E66EE66A7AEC78F0E552E5524F0EE66EC7
:10189000E66A7AEC78F0E552E552550EE66EE66AB5
:1018A0007AEC78F0E552E5524E0EE66EE66A7AEC96
:1018B00078F0E552E552540EE66EE66A7AEC78F07E
:1018C000E552E5523D0EE66EE66A7AEC78F0E552B6
:1018D000E5522CC1E6FF2DC1E6FFB3EC70F0E552F6
:1018E000E5520101365101012C5D01013751010121
:1018F0002D5913E3020EE66EE66A780EE66EE66A8E
:101900002C0EE66E010EE66ECAEC7BF0146E060E2F
:10191000E15E145001012C6B2D6BB7D6B9EF6EF060
:10192000010EE66EE66A31EC78F0E552E552020E01
:10193000E66EE66A1DEC79F0E552E552800EE66E41
:10194000E66A31EC78F0E552E552050EE66EE66A9D
:101950001DEC79F0E552E5524C0EE66EE66A7AEC43
:1019600078F0E552E552450EE66EE66A7AEC78F0DC
:10197000E552E552440EE66EE66A7AEC78F0E552FE
:10198000E552200EE66EE66A7AEC78F0E552E55212
:101990004C0EE66EE66A7AEC78F0E552E552550EAA
:1019A000E66EE66A7AEC78F0E552E552580EE66E9D
:1019B000E66A7AEC78F0E552E552200EE66EE66AC9
:1019C0007AEC78F0E552E552490EE66EE66A7AEC7A
:1019D00078F0E552E5524E0EE66EE66A7AEC78F063
:1019E000E552E552200EE66EE66A7AEC78F0E552B2
:1019F000E5526D0EE66EE66A7AEC78F0E552E55255
:101A0000560EE66EE66A7AEC78F0E552E552200E64
:101A1000E66EE66A7AEC78F0E552E552200EE66E64
:101A2000E66A7AEC78F0E552E552140EE66EE66A64
:101A30001DEC79F0E552E55283AA7FD0030EE66EE5
:101A400048EC17F0E5520A0EE66EE66A1DEC79F0F6
:101A5000E552E552C00EE66EE66A31EC78F0E552EA
:101A6000E552C9C0E6FFCAC0E6FFB3EC70F0E5522C
:101A7000E552C50EE66EE66A31EC78F0E552E552C5
:101A8000CBC0E6FFCCC0E6FFB3EC70F0E552E55208
:101A9000CA0EE66EE66A31EC78F0E552E552CDC04A
:101AA000E6FFCEC0E6FFB3EC70F0E552E552900ED3
:101AB000E66EE66A31EC78F0E552E552CFC0E6FF1B
:101AC000D0C0E6FFB3EC70F0E552E552F40EE66EDE
:101AD000010EE66E1DEC79F0E552E5520001C951A8
:101AE000CB25166ECA51CC21176E1650CD25146E1B
:101AF0001750CE21156E1450CF250F01036F1550CE
:101B00000001D0210F01046F020E0F0B05E0D890E9
:101B100004330333E806FBE10F01640E0403F3CF43
:101B200004FF0303F3CF03FFF45004270A0EE66E0D
:101B3000E66A1DEC79F0E552E55283BA7FD0070ED4
:101B4000E66E9CEC15F0E5520A0EE66EE66A1DECB8
:101B500079F0E552E552C00EE66EE66A31EC78F0B7
:101B6000E552E552D1C0E6FFD2C0E6FFB3EC70F01B
:101B7000E552E552C50EE66EE66A31EC78F0E552C4
:101B8000E552D3C0E6FFD4C0E6FFB3EC70F0E552F7
:101B9000E552CA0EE66EE66A31EC78F0E552E5529F
:101BA000D5C0E6FFD6C0E6FFB3EC70F0E552E552D3
:101BB000900EE66EE66A31EC78F0E552E552D7C059
:101BC000E6FFD8C0E6FFB3EC70F0E552E552F40E44
:101BD000E66E010EE66E1DEC79F0E552E55200016D
:101BE000D151D325166ED251D421176E1650D5255A
:101BF000146E1750D621156E1450D7250F01036FA0
:101C000015500001D8210F01046F020E0F0B05E0E3
:101C1000D89004330333E806FBE10F01640E04039C
:101C2000F3CF04FF0303F3CF03FFF45004270A0E9E
:101C3000E66EE66A1DEC79F0E552E5520A0E811473
:101C40000A0801E07BD6B9EC6EF099EC71F0829253
:101C500082908294900EAB6E200EAC6EAC8A949CF7
:101C6000170EAF6EAB8E020EE66EE66A1DEC79F0D3
:101C7000E552E5522A0EAD6E9EA8FED71200010E67
:101C8000E66EE66A31EC78F0E552E552050EE66E56
:101C900093EC7CF0E552800EE66EE66A31EC78F06B
:101CA000E552E552050EE66E93EC7CF0E55299ECB8
:101CB00071F083BA1AD0080EE66E48EC17F0E552C0
:101CC000020EE66EE66A1DEC79F0E552E55260EC34
:101CD00005F0040EE66EE66AE66AE66A54EC69F020
:101CE000E552E552E552E55219D0040EE66E9CEC41
:101CF00015F0E552020EE66EE66A1DEC79F0E5524B
:101D0000E55260EC05F0040EE66EE66AE66AE66A05
:101D100054EC69F0E552E552E552E5520A0E8114A1
:101D20000A08C5E1B9EC6EF0829282908294010EAD
:101D3000E66EC0EC7CF0E552900EAB6E200EAC6E01
:101D4000AC8A949C170EAF6EAB8E020EE66EC0ECA2
:101D50007CF0E5522A0EAD6E9EA8FED71200D9CFB8
:101D6000E6FFE1CFD9FFE652DF6A010EE66EE66AD2
:101D700031EC78F0E552E552140EE66EE66A1DECA1
:101D800079F0E552E552800EE66EE66A31EC78F0C5
:101D9000E552E552020EE66EE66A1DEC79F0E55278
:101DA000E552200EE66EE66A7AEC78F0E552E552EE
:101DB000450EE66EE66A7AEC78F0E552E5524E0E94
:101DC000E66EE66A7AEC78F0E552E552540EE66E7D
:101DD000E66A7AEC78F0E552E552450EE66EE66A80
:101DE0007AEC78F0E552E552520EE66EE66A7AEC4D
:101DF00078F0E552E552200EE66EE66A7AEC78F06D
:101E0000E552E552500EE66EE66A7AEC78F0E5525D
:101E1000E552410EE66EE66A7AEC78F0E552E5525C
:101E2000530EE66EE66A7AEC78F0E552E552530E10
:101E3000E66EE66A7AEC78F0E552E552570EE66E09
:101E4000E66A7AEC78F0E552E5524F0EE66EE66A05
:101E50007AEC78F0E552E552520EE66EE66A7AECDC
:101E600078F0E552E552440EE66EE66A7AEC78F0D8
:101E7000E552E552200EE66EE66A7AEC78F0E5521D
:101E8000E552050EE66EE66A1DEC79F0E552E55284
:101E9000140EE66EE66A1DEC79F0E552E552C00ECE
:101EA000E66EE66A31EC78F0E552E552020EE66E37
:101EB000E66A1DEC79F0E552E5522CC1E6FF2DC132
:101EC000E6FFB3EC70F0E552E55281A0D5D081A0D9
:101ED00008D0020EE66EE66A1DEC79F0E552E55296
:101EE000F6D701012C2B000E2D23020EE66EE66ABA
:101EF0007A0EE66EE66A2C0EE66E010EE66E37ECA2
:101F00007BF0146E060EE15E1450050EE66EE66A76
:101F1000F5EC2AF0E552E552800EE66EE66A31EC09
:101F200078F0E552E552020EE66EE66A1DEC79F0B5
:101F3000E552E552200EE66EE66A7AEC78F0E5525C
:101F4000E552450EE66EE66A7AEC78F0E552E55227
:101F50004E0EE66EE66A7AEC78F0E552E552540EE3
:101F6000E66EE66A7AEC78F0E552E552450EE66EEA
:101F7000E66A7AEC78F0E552E552520EE66EE66AD1
:101F80007AEC78F0E552E552200EE66EE66A7AECDD
:101F900078F0E552E552500EE66EE66A7AEC78F09B
:101FA000E552E552410EE66EE66A7AEC78F0E552CB
:101FB000E552530EE66EE66A7AEC78F0E552E552A9
:101FC000530EE66EE66A7AEC78F0E552E552570E6B
:101FD000E66EE66A7AEC78F0E552E5524F0EE66E70
:101FE000E66A7AEC78F0E552E552520EE66EE66A61
:101FF0007AEC78F0E552E552440EE66EE66A7AEC49
:1020000078F0E552E552200EE66EE66A7AEC78F05A
:10201000E552E552C00EE66EE66A31EC78F0E55224
:10202000E552020EE66EE66A1DEC79F0E552E552E5
:102030002CC1E6FF2DC1E6FFB3EC70F0E552E5528E
:1020400001012C5101013A5D01012D5101013B5962
:1020500013E2020EE66EE66A7A0EE66EE66A2C0E71
:10206000E66E010EE66ECAEC7BF0146E060EE15EC3
:10207000145001012C6B2D6B080E8114080801E02F
:10208000E0D0080E8114080808E1020EE66EE66A48
:102090001DEC79F0E552E552F4D701012C07000E52
:1020A0002D5B020EE66EE66A7A0EE66EE66A2C0E8E
:1020B000E66E010EE66E37EC7BF0146E060EE15E06
:1020C0001450D00EE66EE66A31EC78F0E552E55237
:1020D000050EE66EE66AF5EC2AF0E552E552800E52
:1020E000E66EE66A31EC78F0E552E552020EE66EF5
:1020F000E66A1DEC79F0E552E552200EE66EE66ADE
:102100007AEC78F0E552E552450EE66EE66A7AEC36
:1021100078F0E552E5524E0EE66EE66A7AEC78F01B
:10212000E552E552540EE66EE66A7AEC78F0E55236
:10213000E552450EE66EE66A7AEC78F0E552E55235
:10214000520EE66EE66A7AEC78F0E552E552200E21
:10215000E66EE66A7AEC78F0E552E552500EE66EED
:10216000E66A7AEC78F0E552E552410EE66EE66AF0
:102170007AEC78F0E552E552530EE66EE66A7AECB8
:1021800078F0E552E552530EE66EE66A7AEC78F0A6
:10219000E552E552570EE66EE66A7AEC78F0E552C3
:1021A000E5524F0EE66EE66A7AEC78F0E552E552BB
:1021B000520EE66EE66A7AEC78F0E552E552440E8D
:1021C000E66EE66A7AEC78F0E552E552200EE66EAD
:1021D000E66A7AEC78F0E552E552C00EE66EE66A01
:1021E00031EC78F0E552E552020EE66EE66A1DEC3F
:1021F00079F0E552E5522CC1E6FF2DC1E6FFB3ECC4
:1022000070F0E552E55201012C5101013A5D0101E6
:102210002D5101013B5913E2020EE66EE66A7A0E79
:10222000E66EE66A2C0EE66E010EE66ECAEC7BF0F8
:10223000146E060EE15E145001012C6B2D6B010E25
:10224000DF6E040E8114040801E03FD60101010E87
:102250002C1901E12D5101E06CD1010EE66EE66A08
:1022600031EC78F0E552E552140EE66EE66A1DECAC
:1022700079F0E552E552800EE66EE66A31EC78F0D0
:10228000E552E552200EE66EE66A7AEC78F0E55209
:10229000E552560EE66EE66A7AEC78F0E552E552C3
:1022A000410EE66EE66A7AEC78F0E552E5524C0EA5
:1022B000E66EE66A7AEC78F0E552E552490EE66E93
:1022C000E66A7AEC78F0E552E552440EE66EE66A8C
:1022D0007AEC78F0E552E552200EE66EE66A7AEC8A
:1022E00078F0E552E552500EE66EE66A7AEC78F048
:1022F000E552E552410EE66EE66A7AEC78F0E55278
:10230000E552530EE66EE66A7AEC78F0E552E55255
:10231000530EE66EE66A7AEC78F0E552E552570E17
:10232000E66EE66A7AEC78F0E552E5524F0EE66E1C
:10233000E66A7AEC78F0E552E552520EE66EE66A0D
:102340007AEC78F0E552E552440EE66EE66A7AECF5
:1023500078F0E552E552200EE66EE66A7AEC78F007
:10236000E552E552140EE66EE66A1DEC79F0E55290
:10237000E552C00EE66EE66A31EC78F0E552E552C1
:10238000200EE66EE66A7AEC78F0E552E552460EEB
:10239000E66EE66A7AEC78F0E552E5524F0EE66EAC
:1023A000E66A7AEC78F0E552E552520EE66EE66A9D
:1023B0007AEC78F0E552E552200EE66EE66A7AECA9
:1023C00078F0E552E552530EE66EE66A7AEC78F064
:1023D000E552E552450EE66EE66A7AEC78F0E55293
:1023E000E552540EE66EE66A7AEC78F0E552E55274
:1023F000200EE66EE66A7AEC78F0E552E552430E7E
:10240000E66EE66A7AEC78F0E552E552480EE66E42
:10241000E66A7AEC78F0E552E552410EE66EE66A3D
:102420007AEC78F0E552E5524E0EE66EE66A7AEC0A
:1024300078F0E552E5524E0EE66EE66A7AEC78F0F8
:10244000E552E552450EE66EE66A7AEC78F0E55222
:10245000E5524C0EE66EE66A7AEC78F0E552E5520B
:10246000140EE66EE66A1DEC79F0E552E552900E28
:10247000E66EE66A31EC78F0E552E552200EE66E43
:10248000E66A7AEC78F0E552E552500EE66EE66ABE
:102490007AEC78F0E552E552520EE66EE66A7AEC96
:1024A00078F0E552E552450EE66EE66A7AEC78F091
:1024B000E552E552530EE66EE66A7AEC78F0E552A4
:1024C000E552530EE66EE66A7AEC78F0E552E55294
:1024D000200EE66EE66A7AEC78F0E552E552220EBE
:1024E000E66EE66A7AEC78F0E552E552450EE66E65
:1024F000E66A7AEC78F0E552E552220EE66EE66A7C
:102500007AEC78F0E552E552140EE66EE66A1DECC0
:1025100079F0E552E552AFEC1AF00A0E81140A0880
:10252000FAE1010EE66EE66A31EC78F0E552E5522A
:102530008ED0010EE66EE66A31EC78F0E552E55297
:10254000140EE66EE66A1DEC79F0E552E552800E57
:10255000E66EE66A31EC78F0E552E552200EE66E62
:10256000E66A7AEC78F0E552E552570EE66EE66AD6
:102570007AEC78F0E552E552520EE66EE66A7AECB5
:1025800078F0E552E5524F0EE66EE66A7AEC78F0A6
:10259000E552E5524E0EE66EE66A7AEC78F0E552C8
:1025A000E552470EE66EE66A7AEC78F0E552E552BF
:1025B000200EE66EE66A7AEC78F0E552E552500EAF
:1025C000E66EE66A7AEC78F0E552E552410EE66E88
:1025D000E66A7AEC78F0E552E552530EE66EE66A6A
:1025E0007AEC78F0E552E552530EE66EE66A7AEC44
:1025F00078F0E552E552570EE66EE66A7AEC78F02E
:10260000E552E5524F0EE66EE66A7AEC78F0E55256
:10261000E552520EE66EE66A7AEC78F0E552E55243
:10262000440EE66EE66A7AEC78F0E552E552200E4A
:10263000E66EE66A7AEC78F0E552E552140EE66E44
:10264000E66A1DEC79F0E552E552B5EF0EF00A0EA0
:1026500081140A0808E0020EE66EE66A1DEC79F0C5
:10266000E552E552F4D7E552E552E7CFD9FF120023
:102670000F0E81144BE0010EE66EE66AD9EC78F09D
:10268000E552E5520F0E811440E00F0E8114000157
:102690009A6F9A51040A10E0060A0BE00A0A06E053
:1026A000090A01E032D04CEC27F02FD039EC28F0A9
:1026B0002CD022EC29F029D03AC1F7F03BC1F8F038
:1026C000020EE66E3AC1E6FF3BC1E6FF3AC1E6FF05
:1026D0003BC1E6FF3EEC29F0146E050EE15E14509E
:1026E000F7C03AF1F8C03BF1020EE66EE66A7A0EE8
:1026F000E66EE66A3A0EE66E010EE66E37EC7BF0A9
:10270000146E060EE15E145000D000D01200010ECF
:10271000E66EE66A31EC78F0E552E552800EE66E40
:10272000E66A31EC78F0E552E552140EE66EE66AA0
:102730001DEC79F0E552E552430EE66EE66A7AEC5E
:1027400078F0E552E552480EE66EE66A7AEC78F0EB
:10275000E552E552410EE66EE66A7AEC78F0E55213
:10276000E5524E0EE66EE66A7AEC78F0E552E552F6
:102770004E0EE66EE66A7AEC78F0E552E552450ECA
:10278000E66EE66A7AEC78F0E552E5524C0EE66EBB
:10279000E66A7AEC78F0E552E552200EE66EE66ADB
:1027A0007AEC78F0E552E552530EE66EE66A7AEC82
:1027B00078F0E552E552450EE66EE66A7AEC78F07E
:1027C000E552E552540EE66EE66A7AEC78F0E55290
:1027D000E5523A0EE66EE66A7AEC78F0E552E5529A
:1027E0003A0EE66EE66A7AEC78F0E552E552450E6E
:1027F000E66EE66A7AEC78F0E552E552260EE66E71
:10280000E66A7AEC78F0E552E552530EE66EE66A37
:102810007AEC78F0E552E552C00EE66EE66A31ECED
:1028200078F0E552E552020EE66EE66A1DEC79F0AC
:10283000E552E552430EE66EE66A7AEC78F0E55230
:10284000E552410EE66EE66A7AEC78F0E552E55222
:102850004C0EE66EE66A7AEC78F0E552E552490EE7
:10286000E66EE66A7AEC78F0E552E552420EE66EE4
:10287000E66A7AEC78F0E552E552520EE66EE66AC8
:102880007AEC78F0E552E552410EE66EE66A7AECB3
:1028900078F0E552E552540EE66EE66A7AEC78F08E
:1028A000E552E552490EE66EE66A7AEC78F0E552BA
:1028B000E5524F0EE66EE66A7AEC78F0E552E552A4
:1028C0004E0EE66EE66A7AEC78F0E552E5523A0E84
:1028D000E66EE66A7AEC78F0E552E5523A0EE66E7C
:1028E000E66A7AEC78F0E552E552550EE66EE66A55
:1028F0007AEC78F0E552E552260EE66EE66A7AEC5E
:1029000078F0E552E552440EE66EE66A7AEC78F02D
:10291000E552E552900EE66EE66A31EC78F0E5524B
:10292000E552020EE66EE66A1DEC79F0E552E552DC
:10293000460EE66EE66A7AEC78F0E552E5524F0E06
:10294000E66EE66A7AEC78F0E552E552520EE66EF3
:10295000E66A7AEC78F0E552E552200EE66EE66A19
:102960007AEC78F0E552E5524C0EE66EE66A7AECC7
:1029700078F0E552E552550EE66EE66A7AEC78F0AC
:10298000E552E552580EE66EE66A7AEC78F0E552CA
:10299000E552200EE66EE66A7AEC78F0E552E552F2
:1029A0004F0EE66EE66A7AEC78F0E552E5522F0EAD
:1029B000E66EE66A7AEC78F0E552E552500EE66E85
:1029C000E66A7AEC78F0E552E5523A0EE66EE66A8F
:1029D0007AEC78F0E552E5523A0EE66EE66A7AEC69
:1029E00078F0E552E552550EE66EE66A7AEC78F03C
:1029F000E552E552260EE66EE66A7AEC78F0E5528C
:102A0000E552530EE66EE66A7AEC78F0E552E5524E
:102A1000D00EE66EE66A31EC78F0E552E552020E31
:102A2000E66EE66A1DEC79F0E552E552540EE66E6C
:102A3000E66A7AEC78F0E552E5524F0EE66EE66A09
:102A40007AEC78F0E552E552200EE66EE66A7AEC12
:102A500078F0E552E552450EE66EE66A7AEC78F0DB
:102A6000E552E552580EE66EE66A7AEC78F0E552E9
:102A7000E552490EE66EE66A7AEC78F0E552E552E8
:102A8000540EE66EE66A7AEC78F0E552E5523A0EBC
:102A9000E66EE66A7AEC78F0E552E5523A0EE66EBA
:102AA000E66A7AEC78F0E552E552530EE66EE66A95
:102AB0007AEC78F0E552E552260EE66EE66A7AEC9C
:102AC00078F0E552E552440EE66EE66A7AEC78F06C
:102AD000E552E552090E8114090802E13FEC0EF0BF
:102AE000030E8114030802E190EC0CF0060E811431
:102AF000060802E1AFEC0EF00A0E81140A08EAE1C2
:102B0000B9EC6EF099EC71F0829282908294900E02
:102B1000AB6E200EAC6EAC8A949C170EAF6EAB8E73
:102B2000020EE66EE66A1DEC79F0E552E5522A0ED9
:102B3000AD6E9EA8FED71200D9CFE6FFE1CFD9FF38
:102B4000020EE66EE66A1DEC79F0E552E552900E53
:102B5000AB6E200EAC6EAC8A949C170EAF6EAB8E33
:102B6000020EE66EE66A1DEC79F0E552E552FE0EC5
:102B7000DB50AD6E9EA8FED7020EE66EE66A1DEC37
:102B800079F0E552E5520F01245101E07DD10001B9
:102B9000886B896B050E885D000E895901E304D1AD
:102BA000C26A050EC16E010EC26E030EC26EC2B2C3
:102BB000FED7C4500001A96FAA6BC350AB6FAC6BBA
:102BC000A9C0AAF0A96BA951AB11AB6FAA51AC1166
:102BD000AC6FABC008F0ACC009F07EEC79F007C078
:102BE00014F008C015F009C016F00AC017F0890EDD
:102BF0000C6E410E0D6E900E0E6E400E0F6E14C0D8
:102C000007F015C008F016C009F017C00AF093ECE1
:102C100079F02DEC7AF008C0C9F009C0CAF0140EA2
:102C2000C26E050EC16E150EC26E170EC26EC2B216
:102C3000FED7C4500001AD6FAE6BC350AF6FB06B29
:102C4000ADC0AEF0AD6BAD51AF11AF6FAE51B011C5
:102C5000B06FAFC008F0B0C009F07EEC79F007C0EB
:102C600014F008C015F009C016F00AC017F0890E5C
:102C70000C6E410E0D6E900E0E6E400E0F6E14C057
:102C800007F015C008F016C009F017C00AF093EC61
:102C900079F02DEC7AF008C0CBF009C0CCF0180E1A
:102CA000C26E050EC16E190EC26E1B0EC26EC2B28E
:102CB000FED7C4500001B16FB26BC350B36FB46B99
:102CC000B1C0B2F0B16BB151B311B36FB251B41125
:102CD000B46FB3C008F0B4C009F07EEC79F007C05F
:102CE00014F008C015F009C016F00AC017F0890EDC
:102CF0000C6E410E0D6E900E0E6E400E0F6E14C0D7
:102D000007F015C008F016C009F017C00AF093ECE0
:102D100079F02DEC7AF008C0CDF009C0CEF0500E5D
:102D2000C26E050EC16E510EC26E530EC26EC2B29D
:102D3000FED7C4500001B56FB66BC350B76FB86B08
:102D4000B5C0B6F0B56BB551B711B76FB651B81184
:102D5000B86FB7C008F0B8C009F07EEC79F007C0D2
:102D600014F008C015F009C016F00AC017F0890E5B
:102D70000C6E410E0D6E900E0E6E400E0F6E14C056
:102D800007F015C008F016C009F017C00AF093EC60
:102D900079F02DEC7AF008C0CFF009C0D0F0000136
:102DA000882B000E8923F6D660513EEC04F000D04B
:102DB0000001A76BA86B0F01216B040E215D1AE2C5
:102DC0002151EA6A9F0FE96E000EEA22EF0403E147
:102DD0000001A72B0CD02151EA6A9F0FE96E000E6B
:102DE000EA22EF50020803E10001A82B00D00F01F6
:102DF000212BE3D70001A851D880A7550EE28C6B98
:102E00008D6B020E8A6F8B6B7A6B7B6B8E6B8F6B0D
:102E1000010E0F010E6F0F6B36D0A851A75D0DE2AA
:102E20008C6B8D6B020E7A6F7B6B8E6F8F6B8A6BE8
:102E30008B6B0F010E6F0F6B26D0A75110E1A851BD
:102E40000EE1020E8C6F8D6B8A6B8B6B7A6B7B6BDA
:102E50008E6B8F6B010E0F010E6F0F6B14D0A8518C
:102E6000A75D11E1A7510FE0A8510DE08C6B8D6BB0
:102E7000020E7A6F7B6B8A6F8B6B8E6F8F6B0F017D
:102E80000E6F0F6B00D000D0E552E7CFD9FF1200D4
:102E9000D9CFE6FFE1CFD9FF020EE66EE66A1DEC60
:102EA00079F0E552E552900EAB6E200EAC6EAC8A16
:102EB000949C170EAF6EAB8E020EE66EE66A1DECAA
:102EC00079F0E552E552FE0EDB50AD6E9EA8FED7BE
:102ED000020EE66EE66A1DEC79F0E552E5520F014E
:102EE000245101E07FD10001886B896B050E885D5C
:102EF000000E895901E305D1540EC26E050EC16E54
:102F0000550EC26E570EC26EC2B2FED7C45000013B
:102F1000B96FBA6BC350BB6FBC6BB9C0BAF0B96BB9
:102F2000B951BB11BB6FBA51BC11BC6FBBC008F02B
:102F3000BCC009F07EEC79F007C014F008C015F0B1
:102F400009C016F00AC017F0890E0C6E410E0D6E06
:102F5000900E0E6E400E0F6E14C007F015C008F0F4
:102F600016C009F017C00AF093EC79F02DEC7AF056
:102F700008C0D1F009C0D2F0580EC26E050EC16E65
:102F8000590EC26E5B0EC26EC2B2FED7C4500001B3
:102F9000BD6FBE6BC350BF6FC06BBDC0BEF0BD6B1D
:102FA000BD51BF11BF6FBE51C011C06FBFC008F08F
:102FB000C0C009F07EEC79F007C014F008C015F02D
:102FC00009C016F00AC017F0890E0C6E410E0D6E86
:102FD000900E0E6E400E0F6E14C007F015C008F074
:102FE00016C009F017C00AF093EC79F02DEC7AF0D6
:102FF00008C0D3F009C0D4F05C0EC26E050EC16EDD
:103000005D0EC26E5F0EC26EC2B2FED7C45000012A
:10301000C16FC26BC350C36FC46BC1C0C2F0C16B80
:10302000C151C311C36FC251C411C46FC3C008F0F2
:10303000C4C009F07EEC79F007C014F008C015F0A8
:1030400009C016F00AC017F0890E0C6E410E0D6E05
:10305000900E0E6E400E0F6E14C007F015C008F0F3
:1030600016C009F017C00AF093EC79F02DEC7AF055
:1030700008C0D5F009C0D6F0600EC26E050EC16E54
:10308000610EC26E630EC26EC2B2FED7C4500001A2
:10309000C56FC66BC350C76FC86BC5C0C6F0C56BE4
:1030A000C551C711C76FC651C811C86FC7C008F056
:1030B000C8C009F07EEC79F007C014F008C015F024
:1030C00009C016F00AC017F0890E0C6E410E0D6E85
:1030D000900E0E6E400E0F6E14C007F015C008F073
:1030E00016C009F017C00AF093EC79F02DEC7AF0D5
:1030F00008C0D7F009C0D8F00001882B000E892342
:10310000F5D660513EEC04F000D00001A76BA86B2F
:103110000F01040E216F080E215D1AE22151EA6AA7
:103120009F0FE96E000EEA22EF0403E10001A72BD6
:103130000CD02151EA6A9F0FE96E000EEA22EF508F
:10314000020803E10001A82B00D00F01212BE3D7D7
:103150000001A851D880A7550EE2946B956B020E22
:10316000906F916B926B936B966B976B010E0F0147
:10317000106F116B36D0A851A75D0DE2946B956B63
:10318000020E926F936B966F976B906B916B0F0122
:10319000106F116B26D0A75110E1A8510EE1020E5D
:1031A000946F956B906B916B926B936B966B976B27
:1031B000010E0F01106F116B14D0A851A75D11E122
:1031C000A7510FE0A8510DE0946B956B020E926F22
:1031D000936B906F916B966F976B0F01106F116BE4
:1031E00000D000D0E552E7CFD9FF1200D9CFE6FFDB
:1031F000E1CFD9FF020EE66EE66A1DEC79F0E552EA
:10320000E552900EAB6E200EAC6EAC8A949C170EFD
:10321000AF6EAB8E020EE66EE66A1DEC79F0E552FB
:10322000E552FE0EDB50AD6E9EA8FED70F01056B7A
:10323000066B4E0E0001886F896B010E0F01096F3E
:103240000A6B0C0E055D000E065901E309D1ABA215
:1032500002D0AB98AB889EAAFED7AE50E66E09CFDF
:10326000E9FF0ACFEAFFD890E936EA367E0EE92672
:10327000000EEA22E552E750EE6EED6A0F01040EF1
:10328000091901E10A5101E0DCD0010E096F0A6B56
:103290000001886F896B050E885D000E895901E376
:1032A00084D0010E881901E1895121E188C0E9FF2C
:1032B00089C0EAFF010ED890E936EA36E806FBE15C
:1032C0007E0EE926000EEA22EECF6AF0EFCF6BF019
:1032D0000001E80E6B03F3CF6BF0030E6A03F350AB
:1032E0006B27E80E6A03F3CF6AF0F4506B27020EE7
:1032F000881901E189511CE188C0E9FF89C0EAFF12
:10330000010ED890E936EA36E806FBE17E0EE926A2
:10331000000EEA22EECF6CF0EFCF6DF00001640EEC
:103320006D03F3CF6DF06C03F3CF6CF0F4506D27A9
:10333000030E881901E189511CE188C0E9FF89C0A9
:10334000EAFF010ED890E936EA36E806FBE17E0E88
:10335000E926000EEA22EECF6EF0EFCF6FF000010B
:103360000A0E6F03F3CF6FF06E03F3CF6EF0F450DD
:103370006F27040E881901E1895112E188C0E9FF25
:1033800089C0EAFF010ED890E936EA36E806FBE18B
:103390007E0EE926000EEA22EECF70F0EDCF71F03E
:1033A0000001882B000E892376D70F01030E051923
:1033B00001E1065113E100016A516C25166E6B5153
:1033C0006D21176E16506E25146E17506F21156EF5
:1033D00014507025D96F15507121DA6F0F01070E47
:1033E000051901E1065113E100016A516C25166EC1
:1033F0006B516D21176E16506E25146E17506F218C
:10340000156E14507025DB6F15507121DC6F0F01A4
:103410000B0E051901E1065113E100016A516C25FB
:10342000166E6B516D21176E16506E25146E175067
:103430006F21156E14507025DD6F15507121DE6FF0
:1034400003D0092B000E0A23800EE66EE66A31ECEB
:1034500078F0E552E5520F01052B000E0623F1D658
:10346000056B066BD9C008F0DAC009F07EEC79F084
:1034700007C014F008C015F009C016F00AC017F014
:10348000290E0C6E5C0E0D6E3F0E0E6E400E0F6E12
:1034900014C007F015C008F016C009F017C00AF0F4
:1034A00093EC79F02DEC7AF008C0E3F009C0E4F079
:1034B000DBC008F0DCC009F07EEC79F007C014F046
:1034C00008C015F009C016F00AC017F0A40E0C6E63
:1034D000700E0D6EBD0E0E6E3F0E0F6E14C007F017
:1034E00015C008F016C009F017C00AF093EC79F087
:1034F0002DEC7AF008C0E5F009C0E6F0DDC008F078
:10350000DEC009F07EEC79F007C014F008C015F0B9
:1035100009C016F00AC017F0A40E0C6E700E0D6EE6
:10352000BD0E0E6E3F0E0F6E14C007F015C008F0F2
:1035300016C009F017C00AF093EC79F02DEC7AF080
:1035400008C0E7F009C0E8F0020EE66EE66A1DEC7E
:1035500079F0E552E552E552E7CFD9FF12000F0EA0
:10356000811401E144D3050EE66EE66AD9EC78F0E9
:10357000E552E552010E0F011A6F1B6B0F0E8114FD
:1035800001E134D30F0E811400019A6F9A51040A9D
:1035900042E0060A35E00A0A18E0090A01E026D3EB
:1035A000010E0F01245D06E32451110803E3DBEC57
:1035B0001EF00AD0245108E10001602B605103087D
:1035C00002E2010E606F00D011D3010E0F01245DE5
:1035D00006E32451110803E3C8EC1FF010D0245176
:1035E0000EE1040E0001605D03E2040E606F01D085
:1035F000602B6051050802E2040E606F00D0F6D225
:10360000010E0F01245D06E32451110803E3B1EC20
:1036100020F000D0EBD20F012429246F110E245D7D
:1036200016E1F5C01EF1F6C01FF1020EE66EE66A65
:10363000280EE66EE66A1E0EE66E010EE66E37ECAA
:103640007BF0146E060EE15E14500F01246B24050E
:1036500016E10001010E996F04C1F5F005C1F6F005
:10366000E66E02C1E6FF03C1E6FF04C1E6FF05C145
:10367000E6FFCDEC20F0146E050EE15E1450020E54
:103680000F01245D2AE10001020E996FF5C004F1DB
:10369000F6C005F1E66EE66A0A0EE66EE66A040E0C
:1036A000E66E010EE66E37EC7BF0146E060EE15E00
:1036B000145002C1F5F003C1F6F0010EE66E02C12E
:1036C000E6FF03C1E6FF04C1E6FF05C1E6FF00EC2B
:1036D00024F0146E050EE15E1450030E0F01245DFC
:1036E0002BE10001010E996FF5C002F1F6C003F164
:1036F000020EE66EE66A0C0EE66EE66A020EE66EF4
:10370000010EE66E37EC7BF0146E060EE15E14508F
:1037100008C1F5F009C1F6F0020EE66E06C1E6FF3B
:1037200007C1E6FF08C1E6FF09C1E6FFCDEC20F0C6
:10373000146E050EE15E1450040E0F01245D2AE1A3
:103740000001020E996FF5C008F1F6C009F1E66EAE
:10375000E66A0E0EE66EE66A080EE66E010EE66E8C
:1037600037EC7BF0146E060EE15E145006C1F5F0E6
:1037700007C1F6F0020EE66E06C1E6FF07C1E6FFDE
:1037800008C1E6FF09C1E6FF00EC24F0146E050E47
:10379000E15E1450050E0F01245D2BE10001010EC6
:1037A000996FF5C006F1F6C007F1020EE66EE66A03
:1037B000100EE66EE66A060EE66E010EE66E37EC59
:1037C0007BF0146E060EE15E14500CC1F5F00DC1D5
:1037D000F6F0030EE66E0AC1E6FF0BC1E6FF0CC170
:1037E000E6FF0DC1E6FFCDEC20F0146E050EE15EA4
:1037F0001450060E0F01245D2AE10001020E996F9C
:10380000F5C00CF1F6C00DF1E66EE66A120EE66E3A
:10381000E66A0C0EE66E010EE66E37EC7BF0146E77
:10382000060EE15E14500AC1F5F00BC1F6F0030E6E
:10383000E66E0AC1E6FF0BC1E6FF0CC1E6FF0DC153
:10384000E6FF00EC24F0146E050EE15E1450070E46
:103850000F01245D2BE10001010E996FF5C00AF103
:10386000F6C00BF1020EE66EE66A140EE66EE66A2C
:103870000A0EE66E010EE66E37EC7BF0146E060E55
:10388000E15E145010C1F5F011C1F6F0040EE66EC1
:103890000EC1E6FF0FC1E6FF10C1E6FF11C1E6FF52
:1038A000CDEC20F0146E050EE15E1450080E0F01F1
:1038B000245D2AE10001020E996FF5C010F1F6C0F7
:1038C00011F1E66EE66A160EE66EE66A100EE66E18
:1038D000010EE66E37EC7BF0146E060EE15E1450BE
:1038E0000EC1F5F00FC1F6F0040EE66E0EC1E6FF54
:1038F0000FC1E6FF10C1E6FF11C1E6FF00EC24F0A6
:10390000146E050EE15E1450090E0F01245D2BE1CB
:103910000001010E996FF5C00EF1F6C00FF1020E15
:10392000E66EE66A180EE66EE66A0E0EE66E010EAA
:10393000E66E37EC7BF0146E060EE15E145014C197
:10394000F5F015C1F6F0050EE66E12C1E6FF13C1E3
:10395000E6FF14C1E6FF15C1E6FFCDEC20F0146EC2
:10396000050EE15E14500A0E0F01245D2AE10001EC
:10397000020E996FF5C014F1F6C015F1E66EE66A15
:103980001A0EE66EE66A140EE66E010EE66E37EC6F
:103990007BF0146E060EE15E145012C1F5F013C1F7
:1039A000F6F0050EE66E12C1E6FF13C1E6FF14C184
:1039B000E6FF15C1E6FF00EC24F0146E050EE15E93
:1039C00014500B0E0F01245D2AE10001010E996FC6
:1039D000F5C012F1F6C013F1020EE66EE66A1C0E97
:1039E000E66EE66A120EE66E010EE66E37EC7BF0CE
:1039F000146E060EE15E145018C1F5F019C1F6F010
:103A0000060EE66E16C1E6FF17C1E6FF18C1E6FF17
:103A100019C1E6FFC2DB146E050EE15E14500C0EF8
:103A20000F01245D2AE10001020E996FF5C018F123
:103A3000F6C019F1E66EE66A1E0EE66EE66A180E2C
:103A4000E66E010EE66E37EC7BF0146E060EE15E5C
:103A5000145016C1F5F017C1F6F0060EE66E16C149
:103A6000E6FF17C1E6FF18C1E6FF19C1E6FF00EC4B
:103A700024F0146E050EE15E14500D0E0F01245D4E
:103A80002AE10001010E996FF5C016F1F6C017F199
:103A9000020EE66EE66A200EE66EE66A160EE66E28
:103AA000010EE66E37EC7BF0146E060EE15E1450EC
:103AB0001CC1F5F01DC1F6F0070EE66E1AC1E6FF57
:103AC0001BC1E6FF1CC1E6FF1DC1E6FF66DB146EED
:103AD000050EE15E14500E0E0F01245D2AE1000177
:103AE000020E996FF5C01CF1F6C01DF1E66EE66A94
:103AF000220EE66EE66A1C0EE66E010EE66E37ECEE
:103B00007BF0146E060EE15E14501AC1F5F01BC175
:103B1000F6F0070EE66E1AC1E6FF1BC1E6FF1CC1F8
:103B2000E6FF1DC1E6FF00EC24F0146E050EE15E19
:103B300014500F0E0F01245D2AE10001010E996F50
:103B4000F5C01AF1F6C01BF1020EE66EE66A240E0D
:103B5000E66EE66A1A0EE66E010EE66E37EC7BF054
:103B6000146E060EE15E145020C1F5F021C1F6F08E
:103B7000080EE66E1EC1E6FF1FC1E6FF20C1E6FF8C
:103B800021C1E6FF0ADB146E050EE15E1450100E33
:103B90000F01245D2AE10001020E996FF5C020F1AA
:103BA000F6C021F1E66EE66A260EE66EE66A200EA3
:103BB000E66E010EE66E37EC7BF0146E060EE15EEB
:103BC00014501EC1F5F01FC1F6F0080EE66E1EC1BE
:103BD000E6FF1FC1E6FF20C1E6FF21C1E6FF00ECC2
:103BE00024F0146E050EE15E145000D003D00F01D6
:103BF0001A6B1B6B12000F0E811401E1A0D0050E91
:103C0000E66EE66AD9EC78F0E552E5520F0E8114C3
:103C100001E194D00F0E811400019A6F9A51040AA9
:103C20003FE0060A33E00A0A17E0090A01E086D0FD
:103C3000010E0F01245D05E32451110802E3BBD8F6
:103C40000AD0245108E10001602B6051030802E210
:103C5000010E606F00D072D0010E0F01245D05E3EC
:103C60002451110802E394D910D024510EE1040E1E
:103C70000001605D03E2040E606F01D0602B6051B3
:103C8000050802E2040E606F00D058D0010E0F014B
:103C9000245D05E32451110802E363DA00D04ED01D
:103CA0000F012429246F030E245D16E1F5C022F1D3
:103CB000F6C023F1020EE66EE66A680EE66EE66A6C
:103CC000220EE66E010EE66E37EC7BF0146E060EE9
:103CD000E15E14500F01246B240515E10001010E73
:103CE000996F30C1F5F031C1F6F0E66E2EC1E6FFF6
:103CF0002FC1E6FF30C1E6FF31C1E6FF4EDA146E98
:103D0000050EE15E1450020E0F01245D16E1000164
:103D1000020E996FF5C030F1F6C031F1E66EE66A39
:103D20006E0EE66EE66A300EE66E010EE66E37EC5B
:103D30007BF0146E060EE15E145000D000D012002D
:103D4000D9CFE6FFE1CFD9FF040EE126DE6ADD6AB6
:103D5000DECF14F0DDCF15F0FD0EDBCF16F0FE0E3A
:103D6000DBCF17F01650145C175015581AE2020EEC
:103D7000DB6A030EDB6A020EDBCF14F0030EDBCF2F
:103D800015F00A0E145C000E155806E2020EDB2A2E
:103D9000030E01E3DB2AEFD7DF2A010E01E3DB2A62
:103DA000D7D7040EE15C02E2E16AE552E16EE5522A
:103DB000E7CFD9FF1200F1C0E9FFF2C0EAFF010E20
:103DC000D890E936EA36E806FBE1E90EE926000E6E
:103DD000EA22EE2A000EEF22F1C0E9FFF2C0EAFF6C
:103DE000010ED890E936EA36E806FBE1E90EE9264D
:103DF000000EEA22EECF14F0EFCF15F0153404E2F6
:103E000014500908000E155411E2F1C0E9FFF2C088
:103E1000EAFF010ED890E936EA36E806FBE1E90E42
:103E2000E926000EEA22090EEE6EED6A080EE66E35
:103E300099C0E6FF67EC77F0E552E552E9C018F06B
:103E4000EAC019F0E80E1902F3CF19F0030E1802B8
:103E5000F3501926E80E1802F3CF18F0F450192683
:103E6000640E086E096AEBC00DF0ECC00EF000ECB9
:103E70007AF018500624166E19500720176E0A0E95
:103E8000086E096AEDC00DF0EEC00EF000EC7AF09D
:103E900016500624146E17500720156E145000019A
:103EA000EF25F56F1550F021F66F000EF55D000E51
:103EB000F65911E2F1C0E9FFF2C0EAFF010ED89015
:103EC000E936EA36E806FBE1E90EE926000EEA22C9
:103ED000EE06000EEF5A0001880ED880F555130E3D
:103EE000F65511E2F1C0E9FFF2C0EAFF010ED890E9
:103EF000E936EA36E806FBE1E90EE926000EEA2299
:103F0000EE06000EEF5AE9C018F0EAC019F0E80E0C
:103F10001902F3CF19F0030E1802F3501926E80E18
:103F20001802F3CF18F0F4501926640E086E096ACF
:103F3000EBC00DF0ECC00EF000EC7AF01850062447
:103F4000166E19500720176E0A0E086E096AEDC02A
:103F50000DF0EEC00EF000EC7AF016500624146E50
:103F600017500720156E14500001EF25F56F1550FE
:103F7000F021F66FF5C0E6FFF6C0E6FFB3EC70F097
:103F8000E552E552E80EE66EC0EC7CF0E552120018
:103F9000F1C0E9FFF2C0EAFF010ED890E936EA3637
:103FA000E806FBE1E90EE926000EEA22EE06000E25
:103FB000EF5AF1C0E9FFF2C0EAFF010ED890E936EE
:103FC000EA36E806FBE1E90EE926000EEA22EECF2A
:103FD00014F0EFCF15F00001800E151410E0F1C0C1
:103FE000E9FFF2C0EAFF010ED890E936EA36E806AA
:103FF000FBE1E90EE926000EEA22EE6AED6A080E00
:10400000E66E99C0E6FF67EC77F0E552E552E9C04D
:1040100018F0EAC019F0E80E1902F3CF19F0030EF8
:104020001802F3501926E80E1802F3CF18F0F450D6
:104030001926640E086E096AEBC00DF0ECC00EF094
:1040400000EC7AF018500624166E19500720176EEF
:104050000A0E086E096AEDC00DF0EEC00EF000EC1D
:104060007AF016500624146E17500720156E14505F
:104070000001EF25F56F1550F021F66F000EF55D8C
:10408000000EF65911E2F1C0E9FFF2C0EAFF010E9D
:10409000D890E936EA36E806FBE1E90EE926000E9B
:1040A000EA22EE2A000EEF220001880ED880F55594
:1040B000130EF65511E2F1C0E9FFF2C0EAFF010E5E
:1040C000D890E936EA36E806FBE1E90EE926000E6B
:1040D000EA22EE2A000EEF22E9C018F0EAC019F039
:1040E000E80E1902F3CF19F0030E1802F350192647
:1040F000E80E1802F3CF18F0F4501926640E086E7B
:10410000096AEBC00DF0ECC00EF000EC7AF018502C
:104110000624166E19500720176E0A0E086E096ADB
:10412000EDC00DF0EEC00EF000EC7AF01650062453
:10413000146E17500720156E14500001EF25F56F0F
:104140001550F021F66FF5C0E6FFF6C0E6FFB3ECC0
:1041500070F0E552E552E80EE66EC0EC7CF0E552F8
:104160001200F40EE66EC0EC7CF0E552080E000181
:10417000F125E66E99C0E6FF67EC77F0E552E5526F
:104180000001F12B000EF223030ED880F155000E32
:10419000F25502E2F16BF26B1200D9CFE6FFE1CFEC
:1041A000D9FF060EE126010EE66EE66A31EC78F0E4
:1041B000E552E552050EE66E93EC7CF0E552800E7A
:1041C000E66EE66A31EC78F0E552E552050EE66EF1
:1041D00093EC7CF0E552530EE66EE66A7AEC78F0EA
:1041E000E552E552450EE66EE66A7AEC78F0E55265
:1041F000E552540EE66EE66A7AEC78F0E552E55246
:10420000200EE66EE66A7AEC78F0E552E5524D0E45
:10421000E66EE66A7AEC78F0E552E5524F0EE66E0D
:10422000E66A7AEC78F0E552E552440EE66EE66A0C
:104230007AEC78F0E552E552450EE66EE66A7AECE5
:1042400078F0E552E552200EE66EE66A7AEC78F0F8
:10425000E552E552430EE66EE66A7AEC78F0E552F6
:10426000E552480EE66EE66A7AEC78F0E552E552E1
:104270000A0EF36EFA0EDBCFF4FFF350F45C0CE29F
:10428000FA0EDB50300FE66EE66A7AEC78F0E55213
:10429000E5520F01006B7ED0140EF36EFA0EDBCFE9
:1042A000F4FFF350F45C32E20A0E146E14C00EF008
:1042B000FA0EDBCF09F0EEEC7CF00550E66ED9503B
:1042C000020FE96EDACFEAFFE552E750EE6EED6AD3
:1042D000310EE66EE66A7AEC78F0E552E552300E81
:1042E000E76E020EDBCF14F0030EDBCF15F0E750C4
:1042F0001426000E152214C0E6FF15C0E6FF7AEC66
:1043000078F0E552E5520F01006B44D0190EF36EC0
:10431000FA0EDBCFF4FFF350F45C32E20A0E146EB7
:1043200014C00EF0FA0EDBCF09F0EEEC7CF0055075
:10433000E66ED950040FE96EDACFEAFFE552E75096
:10434000EE6EED6A320EE66EE66A7AEC78F0E552D1
:10435000E552300EE76E040EDBCF14F0050EDBCF16
:1043600015F0E7501426000E152214C0E6FF15C004
:10437000E6FF7AEC78F0E552E5520F01006B0AD0C7
:10438000FA0EDB50190804E10F01010E006F02D094
:104390000F01006B000501E1C7D0C00EE66EE66AB2
:1043A00031EC78F0E552E552030EE66E93EC7CF0CA
:1043B000E5524D0EE66EE66A7AEC78F0E552E5528B
:1043C000490EE66EE66A7AEC78F0E552E5524E0E5A
:1043D000E66EE66A7AEC78F0E552E552200EE66E7B
:1043E000E66A7AEC78F0E552E552560EE66EE66A39
:1043F0007AEC78F0E552E552410EE66EE66A7AEC28
:1044000078F0E552E5524C0EE66EE66A7AEC78F00A
:10441000E552E5523A0EE66EE66A7AEC78F0E5523D
:10442000E552FD0EDBCFE6FFFE0EDBCFE6FFB3EC81
:1044300070F0E552E5526D0EE66EE66A7AEC78F0C1
:10444000E552E552760EE66EE66A7AEC78F0E552D1
:10445000E5523C0EE66EE66A7AEC78F0E552E552FB
:104460002D0EE66EE66A7AEC78F0E552E552900E93
:10447000E66EE66A31EC78F0E552E552050EE66E3E
:1044800093EC7CF0E5524D0EE66EE66A7AEC78F03D
:10449000E552E552410EE66EE66A7AEC78F0E552B6
:1044A000E552580EE66EE66A7AEC78F0E552E5528F
:1044B000200EE66EE66A7AEC78F0E552E552560E8A
:1044C000E66EE66A7AEC78F0E552E552410EE66E69
:1044D000E66A7AEC78F0E552E5524C0EE66EE66A52
:1044E0007AEC78F0E552E5523A0EE66EE66A7AEC3E
:1044F00078F0E552E552FB0EDBCFE6FFFC0EDBCF9A
:10450000E6FFB3EC70F0E552E5526D0EE66EE66A3A
:104510007AEC78F0E552E552760EE66EE66A7AECD1
:1045200078F0E552E552E6D0C00EE66EE66A31EC70
:1045300078F0E552E552030EE66E93EC7CF0E5521E
:104540004D0EE66EE66A7AEC78F0E552E552490ED9
:10455000E66EE66A7AEC78F0E552E5524E0EE66ECB
:10456000E66A7AEC78F0E552E552200EE66EE66AED
:104570007AEC78F0E552E552560EE66EE66A7AEC91
:1045800078F0E552E552410EE66EE66A7AEC78F094
:10459000E552E5524C0EE66EE66A7AEC78F0E552AA
:1045A000E5523A0EE66EE66A7AEC78F0E552E552AC
:1045B000FD0EDBCFE6FFFE0EDBCFE6FFB3EC70F0C7
:1045C000E552E5526D0EE66EE66A7AEC78F0E55259
:1045D000E552760EE66EE66A7AEC78F0E552E55240
:1045E0003C0EE66EE66A7AEC78F0E552E5522D0E66
:1045F000E66EE66A7AEC78F0E552E552900EE66EE9
:10460000E66A31EC78F0E552E552050EE66E93EC81
:104610007CF0E552200EE66EE66A7AEC78F0E55220
:10462000E552200EE66EE66A7AEC78F0E552E55245
:10463000200EE66EE66A7AEC78F0E552E552200E3E
:10464000E66EE66A7AEC78F0E552E552200EE66E08
:10465000E66A7AEC78F0E552E552200EE66EE66AFC
:104660007AEC78F0E552E552200EE66EE66A7AECD6
:1046700078F0E552E552200EE66EE66A7AEC78F0C4
:10468000E552E552200EE66EE66A7AEC78F0E552E5
:10469000E552200EE66EE66A7AEC78F0E552E552D5
:1046A000200EE66EE66A7AEC78F0E552E552200ECE
:1046B000E66EE66A7AEC78F0E552E552200EE66E98
:1046C000E66A7AEC78F0E552E552200EE66EE66A8C
:1046D0007AEC78F0E552E552200EE66EE66A7AEC66
:1046E00078F0E552E552200EE66EE66A7AEC78F054
:1046F000E552E5520001F16BF26BFD0EDBCFE9F004
:10470000FE0EDBCFEAF0E80E0D6E030E0E6EE9C072
:1047100008F0EAC009F0AAEC7CF008C0E9F009C092
:10472000EAF0FD0EDBCF14F0FE0EDBCF15F0E80E45
:104730000D6E030E0E6E14C008F015C009F0AAEC41
:104740007CF004C014F005C015F014C0DEFF15C0E5
:10475000DDFFDECFEBF0DDCFECF0640E0D6E0E6A08
:10476000EBC008F0ECC009F0AAEC7CF008C0EBF05C
:1047700009C0ECF0DECF14F0DDCF15F0640E0D6E45
:104780000E6A14C008F015C009F0AAEC7CF004C051
:1047900014F005C015F014C0DEFF15C0DDFFDECF3C
:1047A000EDF0DDCFEEF00A0E0D6E0E6AEDC008F0F2
:1047B000EEC009F0AAEC7CF008C0EDF009C0EEF004
:1047C000DECFEFF0DDCFF0F00A0E0D6E0E6AEFC017
:1047D00008F0F0C009F0AAEC7CF004C0EFF005C0CE
:1047E000F0F0E80EE66EC0EC7CF0E552060EE15CFF
:1047F00002E2E16AE552E16EE552E7CFD9FF12002D
:10480000D9CFE6FFE1CFD9FF060EE126010EE66E15
:10481000E66A31EC78F0E552E552050EE66E93EC6F
:104820007CF0E552800EE66EE66A31EC78F0E552F7
:10483000E552050EE66E93EC7CF0E552530EE66E03
:10484000E66A7AEC78F0E552E552450EE66EE66AE5
:104850007AEC78F0E552E552540EE66EE66A7AECB0
:1048600078F0E552E552200EE66EE66A7AEC78F0D2
:10487000E552E5524D0EE66EE66A7AEC78F0E552C6
:10488000E5524F0EE66EE66A7AEC78F0E552E552B4
:10489000440EE66EE66A7AEC78F0E552E552450E93
:1048A000E66EE66A7AEC78F0E552E552200EE66EA6
:1048B000E66A7AEC78F0E552E552430EE66EE66A77
:1048C0007AEC78F0E552E552480EE66EE66A7AEC4C
:1048D00078F0E552E5520A0EF36EFA0EDBCFF4FFE4
:1048E000F350F45C0CE2FA0EDB50300FE66EE66A31
:1048F0007AEC78F0E552E5520F01006B7ED0140E91
:10490000F36EFA0EDBCFF4FFF350F45C32E20A0EE2
:10491000146E14C00EF0FA0EDBCF09F0EEEC7CF052
:104920000550E66ED950020FE96EDACFEAFFE55284
:10493000E750EE6EED6A310EE66EE66A7AEC78F0DC
:10494000E552E552300EE76E020EDBCF14F0030E97
:10495000DBCF15F0E7501426000E152214C0E6FF39
:1049600015C0E6FF7AEC78F0E552E5520F01006BD6
:1049700044D0190EF36EFA0EDBCFF4FFF350F45C63
:1049800032E20A0E146E14C00EF0FA0EDBCF09F0FC
:10499000EEEC7CF00550E66ED950040FE96EDACFEC
:1049A000EAFFE552E750EE6EED6A320EE66EE66A19
:1049B0007AEC78F0E552E552300EE76E040EDBCF6C
:1049C00014F0050EDBCF15F0E7501426000E15226B
:1049D00014C0E6FF15C0E6FF7AEC78F0E552E55228
:1049E0000F01006B0AD0FA0EDB50190804E10F0129
:1049F000010E006F02D00F01006BC00EE66EE66A7A
:104A000031EC78F0E552E552050EE66E93EC7CF061
:104A1000E5524D0EE66EE66A7AEC78F0E552E55224
:104A2000490EE66EE66A7AEC78F0E552E5524E0EF3
:104A3000E66EE66A7AEC78F0E552E552200EE66E14
:104A4000E66A7AEC78F0E552E552560EE66EE66AD2
:104A50007AEC78F0E552E552410EE66EE66A7AECC1
:104A600078F0E552E5524C0EE66EE66A7AEC78F0A4
:104A7000E552E5523A0EE66EE66A7AEC78F0E552D7
:104A8000E552FD0EDBCFE6FFFE0EDBCFE6FFB3EC1B
:104A900070F0E552E5526D0EE66EE66A7AEC78F05B
:104AA000E552E552760EE66EE66A7AEC78F0E5526B
:104AB000E552900EE66EE66A31EC78F0E552E5528A
:104AC000050EE66E93EC7CF0E5524D0EE66EE66A5E
:104AD0007AEC78F0E552E552410EE66EE66A7AEC41
:104AE00078F0E552E552580EE66EE66A7AEC78F018
:104AF000E552E552200EE66EE66A7AEC78F0E55271
:104B0000E552560EE66EE66A7AEC78F0E552E5522A
:104B1000410EE66EE66A7AEC78F0E552E5524C0E0C
:104B2000E66EE66A7AEC78F0E552E5523A0EE66E09
:104B3000E66A7AEC78F0E552E552FB0EDBCFE6FF51
:104B4000FC0EDBCFE6FFB3EC70F0E552E5526D0EE4
:104B5000E66EE66A7AEC78F0E552E552760EE66E9D
:104B6000E66A7AEC78F0E552E5523C0EE66EE66ACB
:104B70007AEC78F0E552E5522D0EE66EE66A7AECB4
:104B800078F0E552E5520001F16BF26BFB0EDBCFE2
:104B9000E9F0FC0EDBCFEAF0E80E0D6E030E0E6EB0
:104BA000E9C008F0EAC009F0AAEC7CF008C0E9F01E
:104BB00009C0EAF0FB0EDBCF14F0FC0EDBCF15F0E2
:104BC000E80E0D6E030E0E6E14C008F015C009F04D
:104BD000AAEC7CF004C014F005C015F014C0DEFF90
:104BE00015C0DDFFDECFEBF0DDCFECF0640E0D6E17
:104BF0000E6AEBC008F0ECC009F0AAEC7CF008C02B
:104C0000EBF009C0ECF0DECF14F0DDCF15F0640E50
:104C10000D6E0E6A14C008F015C009F0AAEC7CF005
:104C200004C014F005C015F014C0DEFF15C0DDFF90
:104C3000DECFEDF0DDCFEEF00A0E0D6E0E6AEDC0A8
:104C400008F0EEC009F0AAEC7CF008C0EDF009C055
:104C5000EEF0DECFEFF0DDCFF0F00A0E0D6E0E6A53
:104C6000EFC008F0F0C009F0AAEC7CF004C0EFF04F
:104C700005C0F0F0E80EE66EC0EC7CF0E552060EE2
:104C8000E15C02E2E16AE552E16EE552E7CFD9FF6D
:104C900012000F0E811401E1FED0010EE66EE66AED
:104CA000D9EC78F0E552E5520F0E811401E1F2D013
:104CB0000F0E811400019A6F9A51040A25E0060A2A
:104CC00019E00A0A0DE0090A01E0E4D0010E0F0123
:104CD000255D03E22551030802E3DED800D0DAD0D7
:104CE000010E0F01255D03E22551030802E3C1D93E
:104CF00000D0D0D0010E0F01255D03E2255103083D
:104D000002E3A0DA00D0C6D00F012529256F040EDA
:104D1000255D26E30001030E996FF7C030F1F8C05E
:104D200031F1020EE66EE66A6E0EE66EE66A300E4F
:104D3000E66E010EE66E37EC7BF0146E060EE15E59
:104D40001450020EE66E30C1E6FF31C1E6FF28C105
:104D5000E6FF29C1E6FF59DB146E050EE15E145033
:104D60000F0125052AE10001010E996F28C1F7F016
:104D700029C1F8F0020EE66E30C1E6FF31C1E6FF50
:104D800028C1E6FF29C1E6FF79DA146E050EE15E5F
:104D90001450F7C028F1F8C029F1020EE66EE66A59
:104DA0006A0EE66EE66A280EE66E010EE66E37ECD7
:104DB0007BF0146E060EE15E1450020E0F01255DAD
:104DC0003EE1F7C028F1F8C029F1020EE66EE66A6E
:104DD0006A0EE66EE66A280EE66E010EE66E37ECA7
:104DE0007BF0146E060EE15E14500001030E996F05
:104DF00030C1F7F031C1F8F0020EE66E30C1E6FFC7
:104E000031C1E6FF28C1E6FF29C1E6FFFEDA146ED4
:104E1000050EE15E1450F7C030F1F8C031F1020E1A
:104E2000E66EE66A6E0EE66EE66A300EE66E010E1D
:104E3000E66E37EC7BF0146E060EE15E1450030E46
:104E40000F01255D26E10001030E996FF7C030F1D7
:104E5000F8C031F1020EE66EE66A6E0EE66EE66AA4
:104E6000300EE66E010EE66E37EC7BF0146E060E29
:104E7000E15E1450020EE66E30C1E6FF31C1E6FF7E
:104E800028C1E6FF29C1E6FFC0DA146E050EE15E17
:104E9000145000D000D01200F1C0E9FFF2C0EAFFC8
:104EA000010ED890E936EA36E806FBE1E90EE9267C
:104EB000000EEA22EE2A000EEF22F1C0E9FFF2C056
:104EC000EAFF010ED890E936EA36E806FBE1E90E82
:104ED000E926000EEA22EECF14F0EFCF15F01534DC
:104EE00004E214500908000E155411E2F1C0E9FF64
:104EF000F2C0EAFF010ED890E936EA36E806FBE197
:104F0000E90EE926000EEA22090EEE6EED6A080EA1
:104F1000E66E99C0E6FF67EC77F0E552E552E9C02E
:104F200018F0EAC019F0E80E1902F3CF19F0030ED9
:104F30001802F3501926E80E1802F3CF18F0F450B7
:104F40001926640E086E096AEBC00DF0ECC00EF075
:104F500000EC7AF018500624166E19500720176ED0
:104F60000A0E086E096AEDC00DF0EEC00EF000ECFE
:104F70007AF016500624146E17500720156E145040
:104F80000001EF25F76F1550F021F86F000EF75D67
:104F9000000EF85911E2F1C0E9FFF2C0EAFF010E7C
:104FA000D890E936EA36E806FBE1E90EE926000E7C
:104FB000EA22EE06000EEF5A00010F0ED880F755D8
:104FC000270EF85511E2F1C0E9FFF2C0EAFF010E29
:104FD000D890E936EA36E806FBE1E90EE926000E4C
:104FE000EA22EE06000EEF5AE9C018F0EAC019F006
:104FF000E80E1902F3CF19F0030E1802F350192628
:10500000E80E1802F3CF18F0F4501926640E086E5B
:10501000096AEBC00DF0ECC00EF000EC7AF018500D
:105020000624166E19500720176E0A0E086E096ABC
:10503000EDC00DF0EEC00EF000EC7AF01650062434
:10504000146E17500720156E14500001EF25F76FEE
:105050001550F021F86FF7C0E6FFF8C0E6FFB3EC9B
:1050600070F0E552E552E80EE66EC0EC7CF0E552D9
:105070001200F1C0E9FFF2C0EAFF010ED890E93654
:10508000EA36E806FBE1E90EE926000EEA22EE0622
:10509000000EEF5AF1C0E9FFF2C0EAFF010ED8900E
:1050A000E936EA36E806FBE1E90EE926000EEA22D7
:1050B000EECF14F0EFCF15F00001800E151410E0C4
:1050C000F1C0E9FFF2C0EAFF010ED890E936EA36F6
:1050D000E806FBE1E90EE926000EEA22EE6AED6A37
:1050E000080EE66E99C0E6FF67EC77F0E552E552F0
:1050F000E9C018F0EAC019F0E80E1902F3CF19F070
:10510000030E1802F3501926E80E1802F3CF18F018
:10511000F4501926640E086E096AEBC00DF0ECC05D
:105120000EF000EC7AF018500624166E1950072085
:10513000176E0A0E086E096AEDC00DF0EEC00EF093
:1051400000EC7AF016500624146E17500720156EE6
:1051500014500001EF25F76F1550F021F86F000E85
:10516000F75D000EF85911E2F1C0E9FFF2C0EAFF65
:10517000010ED890E936EA36E806FBE1E90EE926A9
:10518000000EEA22EE2A000EEF2200010F0ED88058
:10519000F755270EF85511E2F1C0E9FFF2C0EAFF1A
:1051A000010ED890E936EA36E806FBE1E90EE92679
:1051B000000EEA22EE2A000EEF22E9C018F0EAC043
:1051C00019F0E80E1902F3CF19F0030E1802F3508C
:1051D0001926E80E1802F3CF18F0F4501926640EC1
:1051E000086E096AEBC00DF0ECC00EF000EC7AF02E
:1051F00018500624166E19500720176E0A0E086EF6
:10520000096AEDC00DF0EEC00EF000EC7AF0165019
:105210000624146E17500720156E14500001EF2558
:10522000F76F1550F021F86FF7C0E6FFF8C0E6FF02
:10523000B3EC70F0E552E552E80EE66EC0EC7CF09F
:10524000E5521200F40EE66EC0EC7CF0E552080E5A
:105250000001F125E66E99C0E6FF67EC77F0E552B4
:10526000E5520001F12B000EF223030ED880F15518
:10527000000EF25502E2F16BF26B1200D9CFE6FF9D
:10528000E1CFD9FF040EE126C00EE66EE66A31ECEE
:1052900078F0E552E552050EE66E93EC7CF0E552AF
:1052A0000001F16BF26BFD0EDBCFE9F0FE0EDBCF00
:1052B000EAF0E80E0D6E030E0E6EE9C008F0EAC0CB
:1052C00009F0AAEC7CF008C0E9F009C0EAF0FD0E94
:1052D000DBCF14F0FE0EDBCF15F0E80E0D6E030EE3
:1052E0000E6E14C008F015C009F0AAEC7CF004C0E2
:1052F00014F005C015F014C0DEFF15C0DDFFDECFD1
:10530000EBF0DDCFECF0640E0D6E0E6AEBC008F032
:10531000ECC009F0AAEC7CF008C0EBF009C0ECF09E
:10532000DECF14F0DDCF15F0640E0D6E0E6A14C0E2
:1053300008F015C009F0AAEC7CF004C014F005C018
:1053400015F014C0DEFF15C0DDFFDECFEDF0DDCFC0
:10535000EEF00A0E0D6E0E6AEDC008F0EEC009F018
:10536000AAEC7CF008C0EDF009C0EEF0DECFEFF063
:10537000DDCFF0F00A0E0D6E0E6AEFC008F0F0C03F
:1053800009F0AAEC7CF004C0EFF005C0F0F0E80EE4
:10539000E66EC0EC7CF0E552020EE66EE66A7A0E2E
:1053A000E66EE66A3A0EE66E010EE66E37EC7BF0CC
:1053B000146E060EE15E145099EC71F0C00EE66EAC
:1053C000E66A31EC78F0E552E552050EE66E93ECB4
:1053D0007CF0E552520EE66EE66A7AEC78F0E55221
:1053E000E55284A408D0050EE66EE66A1DEC79F05D
:1053F000E552E552F6D7040EE15C02E2E16AE552BD
:10540000E16EE552E7CFD9FF1200D9CFE6FFE1CF39
:10541000D9FF040EE126010EE66EE66A31EC78F063
:10542000E552E552050EE66E93EC7CF0E552310E46
:10543000E66EE66A7AEC78F0E552E552350EE66EF5
:10544000E66A7AEC78F0E552E552560EE66EE66AC8
:105450007AEC78F0E552E552200EE66EE66A7AECD8
:1054600078F0E552E552560EE66EE66A7AEC78F090
:10547000E552E552410EE66EE66A7AEC78F0E552C6
:10548000E552520EE66EE66A7AEC78F0E552E552A5
:105490003A0EE66EE66A7AEC78F0E552E5523C0E9A
:1054A000E66EE66A7AEC78F0E552E5522D0EE66E8D
:1054B000E66A7AEC78F0E552E5520001F16BF26BA6
:1054C000FB0EDBCFE9F0FC0EDBCFEAF0E80E0D6E51
:1054D000030E0E6EE9C008F0EAC009F0AAEC7CF0F9
:1054E00008C0E9F009C0EAF0FB0EDBCF14F0FC0EB7
:1054F000DBCF15F0E80E0D6E030E0E6E14C008F033
:1055000015C009F0AAEC7CF004C014F005C015F039
:1055100014C0DEFF15C0DDFFDECFEBF0DDCFECF019
:10552000640E0D6E0E6AEBC008F0ECC009F0AAEC38
:105530007CF008C0EBF009C0ECF0DECF14F0DDCF5A
:1055400015F0640E0D6E0E6A14C008F015C009F057
:10555000AAEC7CF004C014F005C015F014C0DEFF06
:1055600015C0DDFFDECFEDF0DDCFEEF00A0E0D6EE3
:105570000E6AEDC008F0EEC009F0AAEC7CF008C09D
:10558000EDF009C0EEF0DECFEFF0DDCFF0F00A0E67
:105590000D6E0E6AEFC008F0F0C009F0AAEC7CF0C6
:1055A00004C0EFF005C0F0F0E80EE66EC0EC7CF051
:1055B000E552020EE66EE66A6E0EE66EE66A300EA2
:1055C000E66E010EE66E37EC7BF0146E060EE15EC1
:1055D000145099EC71F0040EE15C02E2E16AE552CC
:1055E000E16EE552E7CFD9FF1200D9CFE6FFE1CF58
:1055F000D9FF0001626B636BFD0EDBCF14F0FE0E72
:10560000DBCF15F01450625D155063590FE2646BE7
:10561000656B070E645D000E655904E2642B000E95
:105620006523F7D7622B000E6323E6D7E552E7CF59
:10563000D9FF1200D9CFE6FFE1CFD9FFFD0EDB5035
:10564000736EA4A8FED7E552E7CFD9FF120082946B
:105650000001010E986F980501E048D3010EE66E37
:10566000E66A31EC78F0E552E5520A0EE66EE66A3B
:105670001DEC79F0E552E552800EE66EE66A31ECFB
:1056800078F0E552E552140EE66EE66A1DEC79F00C
:10569000E552E552540EE66EE66A7AEC78F0E55291
:1056A000E552450EE66EE66A7AEC78F0E552E55290
:1056B000530EE66EE66A7AEC78F0E552E552540E47
:1056C000E66EE66A7AEC78F0E552E552200EE66E78
:1056D000E66A7AEC78F0E552E552530EE66EE66A39
:1056E0007AEC78F0E552E552570EE66EE66A7AEC0F
:1056F00078F0E552E552200EE66EE66A7AEC78F034
:10570000E552E552500EE66EE66A7AEC78F0E55224
:10571000E552520EE66EE66A7AEC78F0E552E55212
:10572000450EE66EE66A7AEC78F0E552E552530EE5
:10573000E66EE66A7AEC78F0E552E552530EE66ED4
:10574000E66A7AEC78F0E552E552450EE66EE66AD6
:105750007AEC78F0E552E552440EE66EE66A7AECB1
:1057600078F0E552E552640EE66EE66A1DEC79F0DB
:10577000E552E55283AA62D10F01010E0B6F050EAF
:105780000B5D01E35BD1C80EE66EE66A1DEC79F0B5
:10579000E552E5520001986B616B8290320EE66E25
:1057A000E66A1DEC79F0E552E552020E0F010B5D41
:1057B00054E1C80EE66EE66A1DEC79F0E552E5525A
:1057C0000BCFE6FF9CEC15F0E552140EE66EE66A90
:1057D0001DEC79F0E552E5520BCFE6FF9CEC15F09D
:1057E000E552140EE66EE66A1DEC79F0E552E552DC
:1057F000010EE66EE66A31EC78F0E552E552800E75
:10580000E66EE66A31EC78F0E552E552140EE66E8B
:10581000E66A1DEC79F0E552E5525FEC4BF02EECB8
:1058200068F0320EE66EE66A1DEC79F0E552E5525C
:10583000520EE66EF6EC18F0E552140EE66EE66ACD
:105840001DEC79F0E552E55252DAD00EE66E070E05
:10585000E66E1DEC79F0E552E552030E0F010B5D8B
:1058600001E091D0C80EE66EE66A1DEC79F0E552D3
:10587000E5520BCFE6FF9CEC15F0E552140EE66EF8
:10588000E66A1DEC79F0E552E5520BCFE6FF9CECA1
:1058900015F0E552140EE66EE66A1DEC79F0E5525D
:1058A000E552010EE66EE66A31EC78F0E552E5521B
:1058B000800EE66EE66A31EC78F0E552E552140EA1
:1058C000E66EE66A1DEC79F0E552E552F9EC54F02B
:1058D0002EEC68F074C0E6FF75C0E6FF28EC76F0A9
:1058E000E552E552320EE66EE66A1DEC79F0E552BD
:1058F000E552520EE66EF6EC18F0E552140EE66E26
:10590000E66A1DEC79F0E552E552E3C0E6FFE4C03B
:10591000E6FF0EEC75F0E552E552140EE66EE66A0F
:105920001DEC79F0E552E552E5C0E6FFE6C0E6FF82
:105930000EEC75F0E552E552140EE66EE66A1DECCB
:1059400079F0E552E552E7C0E6FFE8C0E6FF0EEC6D
:1059500075F0E552E552140EE66EE66A1DEC79F03C
:10596000E552E552D00EE66E070EE66E1DEC79F0BC
:10597000E552E552BCD9D00EE66E070EE66E1DEC80
:1059800079F0E552E552040E0F010B5D54E1C80EAB
:10599000E66EE66A1DEC79F0E552E5520BCFE6FFC4
:1059A0009CEC15F0E552140EE66EE66A1DEC79F0FB
:1059B000E552E5520BCFE6FF9CEC15F0E552140ED4
:1059C000E66EE66A1DEC79F0E552E552010EE66EF0
:1059D000E66A31EC78F0E552E552800EE66EE66A52
:1059E00031EC78F0E552E552140EE66EE66A1DECF5
:1059F00079F0E552E55293EC5EF02EEC68F0320E51
:105A0000E66EE66A1DEC79F0E552E552520EE66E5E
:105A1000F6EC18F0E552140EE66EE66A1DEC79F02D
:105A2000E552E55264D9E80EE66E030EE66E1DEC13
:105A300079F0E552E5520F010B2BA1D683BA56D16E
:105A40000F01050E0B6F0A0E0B5D01E34FD1060E21
:105A50000B5D53E1C80EE66EE66A1DEC79F0E55287
:105A6000E5520BCFE6FF48EC17F0E552140EE66E58
:105A7000E66A1DEC79F0E552E5520BCFE6FF48EC03
:105A800017F0E552140EE66EE66A1DEC79F0E55269
:105A9000E552010EE66EE66A31EC78F0E552E55229
:105AA000800EE66EE66A31EC78F0E552E552140EAF
:105AB000E66EE66A1DEC79F0E552E5522DD979ECF7
:105AC00068F0320EE66EE66A1DEC79F0E552E552BA
